{
    "_format": "hh-sol-artifact-1",
    "contractName": "MemeCoin",
    "sourceName": "contracts/MemeCoin.sol",
    "abi": [
        {
            "inputs": [],
            "stateMutability": "nonpayable",
            "type": "constructor"
        },
        {
            "anonymous": false,
            "inputs": [
                {
                    "indexed": true,
                    "internalType": "address",
                    "name": "owner",
                    "type": "address"
                },
                {
                    "indexed": true,
                    "internalType": "address",
                    "name": "spender",
                    "type": "address"
                },
                {
                    "indexed": false,
                    "internalType": "uint256",
                    "name": "value",
                    "type": "uint256"
                }
            ],
            "name": "Approval",
            "type": "event"
        },
        {
            "anonymous": false,
            "inputs": [
                {
                    "indexed": true,
                    "internalType": "address",
                    "name": "previousOwner",
                    "type": "address"
                },
                {
                    "indexed": true,
                    "internalType": "address",
                    "name": "newOwner",
                    "type": "address"
                }
            ],
            "name": "OwnershipTransferred",
            "type": "event"
        },
        {
            "anonymous": false,
            "inputs": [
                {
                    "indexed": true,
                    "internalType": "address",
                    "name": "from",
                    "type": "address"
                },
                {
                    "indexed": true,
                    "internalType": "address",
                    "name": "to",
                    "type": "address"
                },
                {
                    "indexed": false,
                    "internalType": "uint256",
                    "name": "value",
                    "type": "uint256"
                }
            ],
            "name": "Transfer",
            "type": "event"
        },
        {
            "anonymous": false,
            "inputs": [
                {
                    "indexed": true,
                    "internalType": "address",
                    "name": "owner",
                    "type": "address"
                },
                {
                    "indexed": false,
                    "internalType": "uint256",
                    "name": "amount",
                    "type": "uint256"
                },
                {
                    "indexed": false,
                    "internalType": "string",
                    "name": "message",
                    "type": "string"
                }
            ],
            "name": "additionalTokensMinted",
            "type": "event"
        },
        {
            "anonymous": false,
            "inputs": [
                {
                    "indexed": true,
                    "internalType": "address",
                    "name": "owner",
                    "type": "address"
                },
                {
                    "indexed": false,
                    "internalType": "uint256",
                    "name": "amount",
                    "type": "uint256"
                },
                {
                    "indexed": false,
                    "internalType": "string",
                    "name": "message",
                    "type": "string"
                }
            ],
            "name": "tokensBurned",
            "type": "event"
        },
        {
            "anonymous": false,
            "inputs": [
                {
                    "indexed": true,
                    "internalType": "address",
                    "name": "owner",
                    "type": "address"
                },
                {
                    "indexed": false,
                    "internalType": "uint256",
                    "name": "amount",
                    "type": "uint256"
                },
                {
                    "indexed": false,
                    "internalType": "string",
                    "name": "message",
                    "type": "string"
                }
            ],
            "name": "tokensMinted",
            "type": "event"
        },
        {
            "inputs": [
                {
                    "internalType": "address",
                    "name": "owner",
                    "type": "address"
                },
                {
                    "internalType": "address",
                    "name": "spender",
                    "type": "address"
                }
            ],
            "name": "allowance",
            "outputs": [
                {
                    "internalType": "uint256",
                    "name": "",
                    "type": "uint256"
                }
            ],
            "stateMutability": "view",
            "type": "function"
        },
        {
            "inputs": [
                {
                    "internalType": "address",
                    "name": "spender",
                    "type": "address"
                },
                {
                    "internalType": "uint256",
                    "name": "amount",
                    "type": "uint256"
                }
            ],
            "name": "approve",
            "outputs": [
                {
                    "internalType": "bool",
                    "name": "",
                    "type": "bool"
                }
            ],
            "stateMutability": "nonpayable",
            "type": "function"
        },
        {
            "inputs": [
                {
                    "internalType": "address",
                    "name": "account",
                    "type": "address"
                }
            ],
            "name": "balanceOf",
            "outputs": [
                {
                    "internalType": "uint256",
                    "name": "",
                    "type": "uint256"
                }
            ],
            "stateMutability": "view",
            "type": "function"
        },
        {
            "inputs": [
                {
                    "internalType": "uint256",
                    "name": "amount",
                    "type": "uint256"
                }
            ],
            "name": "burn",
            "outputs": [],
            "stateMutability": "nonpayable",
            "type": "function"
        },
        {
            "inputs": [
                {
                    "internalType": "address",
                    "name": "to",
                    "type": "address"
                },
                {
                    "internalType": "uint256",
                    "name": "amount",
                    "type": "uint256"
                }
            ],
            "name": "burn",
            "outputs": [],
            "stateMutability": "nonpayable",
            "type": "function"
        },
        {
            "inputs": [
                {
                    "internalType": "address",
                    "name": "account",
                    "type": "address"
                },
                {
                    "internalType": "uint256",
                    "name": "amount",
                    "type": "uint256"
                }
            ],
            "name": "burnFrom",
            "outputs": [],
            "stateMutability": "nonpayable",
            "type": "function"
        },
        {
            "inputs": [],
            "name": "decimals",
            "outputs": [
                {
                    "internalType": "uint8",
                    "name": "",
                    "type": "uint8"
                }
            ],
            "stateMutability": "view",
            "type": "function"
        },
        {
            "inputs": [
                {
                    "internalType": "address",
                    "name": "spender",
                    "type": "address"
                },
                {
                    "internalType": "uint256",
                    "name": "subtractedValue",
                    "type": "uint256"
                }
            ],
            "name": "decreaseAllowance",
            "outputs": [
                {
                    "internalType": "bool",
                    "name": "",
                    "type": "bool"
                }
            ],
            "stateMutability": "nonpayable",
            "type": "function"
        },
        {
            "inputs": [
                {
                    "internalType": "address",
                    "name": "spender",
                    "type": "address"
                },
                {
                    "internalType": "uint256",
                    "name": "addedValue",
                    "type": "uint256"
                }
            ],
            "name": "increaseAllowance",
            "outputs": [
                {
                    "internalType": "bool",
                    "name": "",
                    "type": "bool"
                }
            ],
            "stateMutability": "nonpayable",
            "type": "function"
        },
        {
            "inputs": [
                {
                    "internalType": "address",
                    "name": "to",
                    "type": "address"
                },
                {
                    "internalType": "uint256",
                    "name": "amount",
                    "type": "uint256"
                }
            ],
            "name": "mint",
            "outputs": [],
            "stateMutability": "nonpayable",
            "type": "function"
        },
        {
            "inputs": [],
            "name": "name",
            "outputs": [
                {
                    "internalType": "string",
                    "name": "",
                    "type": "string"
                }
            ],
            "stateMutability": "view",
            "type": "function"
        },
        {
            "inputs": [],
            "name": "owner",
            "outputs": [
                {
                    "internalType": "address",
                    "name": "",
                    "type": "address"
                }
            ],
            "stateMutability": "view",
            "type": "function"
        },
        {
            "inputs": [],
            "name": "renounceOwnership",
            "outputs": [],
            "stateMutability": "nonpayable",
            "type": "function"
        },
        {
            "inputs": [],
            "name": "symbol",
            "outputs": [
                {
                    "internalType": "string",
                    "name": "",
                    "type": "string"
                }
            ],
            "stateMutability": "view",
            "type": "function"
        },
        {
            "inputs": [],
            "name": "totalSupply",
            "outputs": [
                {
                    "internalType": "uint256",
                    "name": "",
                    "type": "uint256"
                }
            ],
            "stateMutability": "view",
            "type": "function"
        },
        {
            "inputs": [
                {
                    "internalType": "address",
                    "name": "to",
                    "type": "address"
                },
                {
                    "internalType": "uint256",
                    "name": "amount",
                    "type": "uint256"
                }
            ],
            "name": "transfer",
            "outputs": [
                {
                    "internalType": "bool",
                    "name": "",
                    "type": "bool"
                }
            ],
            "stateMutability": "nonpayable",
            "type": "function"
        },
        {
            "inputs": [
                {
                    "internalType": "address",
                    "name": "from",
                    "type": "address"
                },
                {
                    "internalType": "address",
                    "name": "to",
                    "type": "address"
                },
                {
                    "internalType": "uint256",
                    "name": "amount",
                    "type": "uint256"
                }
            ],
            "name": "transferFrom",
            "outputs": [
                {
                    "internalType": "bool",
                    "name": "",
                    "type": "bool"
                }
            ],
            "stateMutability": "nonpayable",
            "type": "function"
        },
        {
            "inputs": [
                {
                    "internalType": "address",
                    "name": "newOwner",
                    "type": "address"
                }
            ],
            "name": "transferOwnership",
            "outputs": [],
            "stateMutability": "nonpayable",
            "type": "function"
        }
    ],
    "bytecode": "0x60806040523480156200001157600080fd5b506040518060400160405280600981526020017f4d65757a69436f696e00000000000000000000000000000000000000000000008152506040518060400160405280600381526020017f4d555a0000000000000000000000000000000000000000000000000000000000815250816003908051906020019062000096929190620003ec565b508060049080519060200190620000af929190620003ec565b505050620000d2620000c66200019260201b60201c565b6200019a60201b60201c565b6200011033620000e76200026060201b60201c565b600a620000f5919062000635565b6103e862000104919062000772565b6200026960201b60201c565b3373ffffffffffffffffffffffffffffffffffffffff167f8d54cf4376f9d10619fbb6aded215dcdffc1b80415e0750f5064018278632d07620001586200026060201b60201c565b600a62000166919062000635565b6103e862000175919062000772565b6040516200018491906200053a565b60405180910390a2620008dd565b600033905090565b6000600560009054906101000a900473ffffffffffffffffffffffffffffffffffffffff16905081600560006101000a81548173ffffffffffffffffffffffffffffffffffffffff021916908373ffffffffffffffffffffffffffffffffffffffff1602179055508173ffffffffffffffffffffffffffffffffffffffff168173ffffffffffffffffffffffffffffffffffffffff167f8be0079c531659141344cd1fd0a4f28419497f9722a3daafe3b4186f6b6457e060405160405180910390a35050565b60006012905090565b600073ffffffffffffffffffffffffffffffffffffffff168273ffffffffffffffffffffffffffffffffffffffff161415620002dc576040517f08c379a0000000000000000000000000000000000000000000000000000000008152600401620002d390620004fb565b60405180910390fd5b620002f060008383620003e260201b60201c565b80600260008282546200030491906200057d565b92505081905550806000808473ffffffffffffffffffffffffffffffffffffffff1673ffffffffffffffffffffffffffffffffffffffff16815260200190815260200160002060008282546200035b91906200057d565b925050819055508173ffffffffffffffffffffffffffffffffffffffff16600073ffffffffffffffffffffffffffffffffffffffff167fddf252ad1be2c89b69c2b068fc378daa952ba7f163c4a11628f55a4df523b3ef83604051620003c291906200051d565b60405180910390a3620003de60008383620003e760201b60201c565b5050565b505050565b505050565b828054620003fa90620007ea565b90600052602060002090601f0160209004810192826200041e57600085556200046a565b82601f106200043957805160ff19168380011785556200046a565b828001600101855582156200046a579182015b82811115620004695782518255916020019190600101906200044c565b5b5090506200047991906200047d565b5090565b5b80821115620004985760008160009055506001016200047e565b5090565b6000620004ab6020836200056c565b9150620004b8826200088b565b602082019050919050565b6000620004d2601f836200056c565b9150620004df82620008b4565b602082019050919050565b620004f581620007d3565b82525050565b600060208201905081810360008301526200051681620004c3565b9050919050565b6000602082019050620005346000830184620004ea565b92915050565b6000604082019050620005516000830184620004ea565b818103602083015262000564816200049c565b905092915050565b600082825260208201905092915050565b60006200058a82620007d3565b91506200059783620007d3565b9250827fffffffffffffffffffffffffffffffffffffffffffffffffffffffffffffffff03821115620005cf57620005ce62000820565b5b828201905092915050565b6000808291508390505b60018511156200062c5780860481111562000604576200060362000820565b5b6001851615620006145780820291505b808102905062000624856200087e565b9450620005e4565b94509492505050565b60006200064282620007d3565b91506200064f83620007dd565b92506200067e7fffffffffffffffffffffffffffffffffffffffffffffffffffffffffffffffff848462000686565b905092915050565b6000826200069857600190506200076b565b81620006a857600090506200076b565b8160018114620006c15760028114620006cc5762000702565b60019150506200076b565b60ff841115620006e157620006e062000820565b5b8360020a915084821115620006fb57620006fa62000820565b5b506200076b565b5060208310610133831016604e8410600b84101617156200073c5782820a90508381111562000736576200073562000820565b5b6200076b565b6200074b8484846001620005da565b9250905081840481111562000765576200076462000820565b5b81810290505b9392505050565b60006200077f82620007d3565b91506200078c83620007d3565b9250817fffffffffffffffffffffffffffffffffffffffffffffffffffffffffffffffff0483118215151615620007c857620007c762000820565b5b828202905092915050565b6000819050919050565b600060ff82169050919050565b600060028204905060018216806200080357607f821691505b602082108114156200081a57620008196200084f565b5b50919050565b7f4e487b7100000000000000000000000000000000000000000000000000000000600052601160045260246000fd5b7f4e487b7100000000000000000000000000000000000000000000000000000000600052602260045260246000fd5b60008160011c9050919050565b7f496e697469616c20737570706c79206f6620746f6b656e73206d696e7465642e600082015250565b7f45524332303a206d696e7420746f20746865207a65726f206164647265737300600082015250565b611fee80620008ed6000396000f3fe608060405234801561001057600080fd5b50600436106101165760003560e01c8063715018a6116100a25780639dc29fac116100715780639dc29fac146102cf578063a457c2d7146102eb578063a9059cbb1461031b578063dd62ed3e1461034b578063f2fde38b1461037b57610116565b8063715018a61461026d57806379cc6790146102775780638da5cb5b1461029357806395d89b41146102b157610116565b8063313ce567116100e9578063313ce567146101b757806339509351146101d557806340c10f191461020557806342966c681461022157806370a082311461023d57610116565b806306fdde031461011b578063095ea7b31461013957806318160ddd1461016957806323b872dd14610187575b600080fd5b610123610397565b60405161013091906117f3565b60405180910390f35b610153600480360381019061014e91906114f9565b610429565b60405161016091906117d8565b60405180910390f35b61017161044c565b60405161017e9190611995565b60405180910390f35b6101a1600480360381019061019c91906114aa565b610456565b6040516101ae91906117d8565b60405180910390f35b6101bf610485565b6040516101cc9190611a0c565b60405180910390f35b6101ef60048036038101906101ea91906114f9565b61048e565b6040516101fc91906117d8565b60405180910390f35b61021f600480360381019061021a91906114f9565b610538565b005b61023b60048036038101906102369190611535565b610610565b005b61025760048036038101906102529190611445565b610624565b6040516102649190611995565b60405180910390f35b61027561066c565b005b610291600480360381019061028c91906114f9565b6106f4565b005b61029b610714565b6040516102a891906117bd565b60405180910390f35b6102b961073e565b6040516102c691906117f3565b60405180910390f35b6102e960048036038101906102e491906114f9565b6107d0565b005b610305600480360381019061030091906114f9565b6108a8565b60405161031291906117d8565b60405180910390f35b610335600480360381019061033091906114f9565b610992565b60405161034291906117d8565b60405180910390f35b6103656004803603810190610360919061146e565b6109b5565b6040516103729190611995565b60405180910390f35b61039560048036038101906103909190611445565b610a3c565b005b6060600380546103a690611b55565b80601f01602080910402602001604051908101604052809291908181526020018280546103d290611b55565b801561041f5780601f106103f45761010080835404028352916020019161041f565b820191906000526020600020905b81548152906001019060200180831161040257829003601f168201915b5050505050905090565b600080610434610b34565b9050610441818585610b3c565b600191505092915050565b6000600254905090565b600080610461610b34565b905061046e858285610d07565b610479858585610d93565b60019150509392505050565b60006012905090565b600080610499610b34565b905061052d818585600160008673ffffffffffffffffffffffffffffffffffffffff1673ffffffffffffffffffffffffffffffffffffffff16815260200190815260200160002060008973ffffffffffffffffffffffffffffffffffffffff1673ffffffffffffffffffffffffffffffffffffffff168152602001908152602001600020546105289190611a43565b610b3c565b600191505092915050565b610540610b34565b73ffffffffffffffffffffffffffffffffffffffff1661055e610714565b73ffffffffffffffffffffffffffffffffffffffff16146105b4576040517f08c379a00000000000000000000000000000000000000000000000000000000081526004016105ab906118d5565b60405180910390fd5b6105be8282611014565b3373ffffffffffffffffffffffffffffffffffffffff167fc31b604bce0888a4f5e36e76eee33516a5fff7a5d58ac7dcead8174c323eebf28260405161060491906119de565b60405180910390a25050565b61062161061b610b34565b82611174565b50565b60008060008373ffffffffffffffffffffffffffffffffffffffff1673ffffffffffffffffffffffffffffffffffffffff168152602001908152602001600020549050919050565b610674610b34565b73ffffffffffffffffffffffffffffffffffffffff16610692610714565b73ffffffffffffffffffffffffffffffffffffffff16146106e8576040517f08c379a00000000000000000000000000000000000000000000000000000000081526004016106df906118d5565b60405180910390fd5b6106f2600061134b565b565b61070682610700610b34565b83610d07565b6107108282611174565b5050565b6000600560009054906101000a900473ffffffffffffffffffffffffffffffffffffffff16905090565b60606004805461074d90611b55565b80601f016020809104026020016040519081016040528092919081815260200182805461077990611b55565b80156107c65780601f1061079b576101008083540402835291602001916107c6565b820191906000526020600020905b8154815290600101906020018083116107a957829003601f168201915b5050505050905090565b6107d8610b34565b73ffffffffffffffffffffffffffffffffffffffff166107f6610714565b73ffffffffffffffffffffffffffffffffffffffff161461084c576040517f08c379a0000000000000000000000000000000000000000000000000000000008152600401610843906118d5565b60405180910390fd5b6108563382611174565b3373ffffffffffffffffffffffffffffffffffffffff167fcde716650b13ae41f235d679e62500d67355bc41802e6cfc087b67a7850d975f8260405161089c91906119b0565b60405180910390a25050565b6000806108b3610b34565b90506000600160008373ffffffffffffffffffffffffffffffffffffffff1673ffffffffffffffffffffffffffffffffffffffff16815260200190815260200160002060008673ffffffffffffffffffffffffffffffffffffffff1673ffffffffffffffffffffffffffffffffffffffff16815260200190815260200160002054905083811015610979576040517f08c379a000000000000000000000000000000000000000000000000000000000815260040161097090611955565b60405180910390fd5b6109868286868403610b3c565b60019250505092915050565b60008061099d610b34565b90506109aa818585610d93565b600191505092915050565b6000600160008473ffffffffffffffffffffffffffffffffffffffff1673ffffffffffffffffffffffffffffffffffffffff16815260200190815260200160002060008373ffffffffffffffffffffffffffffffffffffffff1673ffffffffffffffffffffffffffffffffffffffff16815260200190815260200160002054905092915050565b610a44610b34565b73ffffffffffffffffffffffffffffffffffffffff16610a62610714565b73ffffffffffffffffffffffffffffffffffffffff1614610ab8576040517f08c379a0000000000000000000000000000000000000000000000000000000008152600401610aaf906118d5565b60405180910390fd5b600073ffffffffffffffffffffffffffffffffffffffff168173ffffffffffffffffffffffffffffffffffffffff161415610b28576040517f08c379a0000000000000000000000000000000000000000000000000000000008152600401610b1f90611855565b60405180910390fd5b610b318161134b565b50565b600033905090565b600073ffffffffffffffffffffffffffffffffffffffff168373ffffffffffffffffffffffffffffffffffffffff161415610bac576040517f08c379a0000000000000000000000000000000000000000000000000000000008152600401610ba390611935565b60405180910390fd5b600073ffffffffffffffffffffffffffffffffffffffff168273ffffffffffffffffffffffffffffffffffffffff161415610c1c576040517f08c379a0000000000000000000000000000000000000000000000000000000008152600401610c1390611875565b60405180910390fd5b80600160008573ffffffffffffffffffffffffffffffffffffffff1673ffffffffffffffffffffffffffffffffffffffff16815260200190815260200160002060008473ffffffffffffffffffffffffffffffffffffffff1673ffffffffffffffffffffffffffffffffffffffff168152602001908152602001600020819055508173ffffffffffffffffffffffffffffffffffffffff168373ffffffffffffffffffffffffffffffffffffffff167f8c5be1e5ebec7d5bd14f71427d1e84f3dd0314c0f7b2291e5b200ac8c7c3b92583604051610cfa9190611995565b60405180910390a3505050565b6000610d1384846109b5565b90507fffffffffffffffffffffffffffffffffffffffffffffffffffffffffffffffff8114610d8d5781811015610d7f576040517f08c379a0000000000000000000000000000000000000000000000000000000008152600401610d7690611895565b60405180910390fd5b610d8c8484848403610b3c565b5b50505050565b600073ffffffffffffffffffffffffffffffffffffffff168373ffffffffffffffffffffffffffffffffffffffff161415610e03576040517f08c379a0000000000000000000000000000000000000000000000000000000008152600401610dfa90611915565b60405180910390fd5b600073ffffffffffffffffffffffffffffffffffffffff168273ffffffffffffffffffffffffffffffffffffffff161415610e73576040517f08c379a0000000000000000000000000000000000000000000000000000000008152600401610e6a90611815565b60405180910390fd5b610e7e838383611411565b60008060008573ffffffffffffffffffffffffffffffffffffffff1673ffffffffffffffffffffffffffffffffffffffff16815260200190815260200160002054905081811015610f04576040517f08c379a0000000000000000000000000000000000000000000000000000000008152600401610efb906118b5565b60405180910390fd5b8181036000808673ffffffffffffffffffffffffffffffffffffffff1673ffffffffffffffffffffffffffffffffffffffff16815260200190815260200160002081905550816000808573ffffffffffffffffffffffffffffffffffffffff1673ffffffffffffffffffffffffffffffffffffffff1681526020019081526020016000206000828254610f979190611a43565b925050819055508273ffffffffffffffffffffffffffffffffffffffff168473ffffffffffffffffffffffffffffffffffffffff167fddf252ad1be2c89b69c2b068fc378daa952ba7f163c4a11628f55a4df523b3ef84604051610ffb9190611995565b60405180910390a361100e848484611416565b50505050565b600073ffffffffffffffffffffffffffffffffffffffff168273ffffffffffffffffffffffffffffffffffffffff161415611084576040517f08c379a000000000000000000000000000000000000000000000000000000000815260040161107b90611975565b60405180910390fd5b61109060008383611411565b80600260008282546110a29190611a43565b92505081905550806000808473ffffffffffffffffffffffffffffffffffffffff1673ffffffffffffffffffffffffffffffffffffffff16815260200190815260200160002060008282546110f79190611a43565b925050819055508173ffffffffffffffffffffffffffffffffffffffff16600073ffffffffffffffffffffffffffffffffffffffff167fddf252ad1be2c89b69c2b068fc378daa952ba7f163c4a11628f55a4df523b3ef8360405161115c9190611995565b60405180910390a361117060008383611416565b5050565b600073ffffffffffffffffffffffffffffffffffffffff168273ffffffffffffffffffffffffffffffffffffffff1614156111e4576040517f08c379a00000000000000000000000000000000000000000000000000000000081526004016111db906118f5565b60405180910390fd5b6111f082600083611411565b60008060008473ffffffffffffffffffffffffffffffffffffffff1673ffffffffffffffffffffffffffffffffffffffff16815260200190815260200160002054905081811015611276576040517f08c379a000000000000000000000000000000000000000000000000000000000815260040161126d90611835565b60405180910390fd5b8181036000808573ffffffffffffffffffffffffffffffffffffffff1673ffffffffffffffffffffffffffffffffffffffff1681526020019081526020016000208190555081600260008282546112cd9190611a99565b92505081905550600073ffffffffffffffffffffffffffffffffffffffff168373ffffffffffffffffffffffffffffffffffffffff167fddf252ad1be2c89b69c2b068fc378daa952ba7f163c4a11628f55a4df523b3ef846040516113329190611995565b60405180910390a361134683600084611416565b505050565b6000600560009054906101000a900473ffffffffffffffffffffffffffffffffffffffff16905081600560006101000a81548173ffffffffffffffffffffffffffffffffffffffff021916908373ffffffffffffffffffffffffffffffffffffffff1602179055508173ffffffffffffffffffffffffffffffffffffffff168173ffffffffffffffffffffffffffffffffffffffff167f8be0079c531659141344cd1fd0a4f28419497f9722a3daafe3b4186f6b6457e060405160405180910390a35050565b505050565b505050565b60008135905061142a81611f8a565b92915050565b60008135905061143f81611fa1565b92915050565b60006020828403121561145757600080fd5b60006114658482850161141b565b91505092915050565b6000806040838503121561148157600080fd5b600061148f8582860161141b565b92505060206114a08582860161141b565b9150509250929050565b6000806000606084860312156114bf57600080fd5b60006114cd8682870161141b565b93505060206114de8682870161141b565b92505060406114ef86828701611430565b9150509250925092565b6000806040838503121561150c57600080fd5b600061151a8582860161141b565b925050602061152b85828601611430565b9150509250929050565b60006020828403121561154757600080fd5b600061155584828501611430565b91505092915050565b61156781611acd565b82525050565b61157681611adf565b82525050565b600061158782611a27565b6115918185611a32565b93506115a1818560208601611b22565b6115aa81611be5565b840191505092915050565b60006115c2602383611a32565b91506115cd82611bf6565b604082019050919050565b60006115e5602283611a32565b91506115f082611c45565b604082019050919050565b6000611608602683611a32565b915061161382611c94565b604082019050919050565b600061162b602283611a32565b915061163682611ce3565b604082019050919050565b600061164e601d83611a32565b915061165982611d32565b602082019050919050565b6000611671602683611a32565b915061167c82611d5b565b604082019050919050565b6000611694600e83611a32565b915061169f82611daa565b602082019050919050565b60006116b7602083611a32565b91506116c282611dd3565b602082019050919050565b60006116da602183611a32565b91506116e582611dfc565b604082019050919050565b60006116fd601983611a32565b915061170882611e4b565b602082019050919050565b6000611720602583611a32565b915061172b82611e74565b604082019050919050565b6000611743602483611a32565b915061174e82611ec3565b604082019050919050565b6000611766602583611a32565b915061177182611f12565b604082019050919050565b6000611789601f83611a32565b915061179482611f61565b602082019050919050565b6117a881611b0b565b82525050565b6117b781611b15565b82525050565b60006020820190506117d2600083018461155e565b92915050565b60006020820190506117ed600083018461156d565b92915050565b6000602082019050818103600083015261180d818461157c565b905092915050565b6000602082019050818103600083015261182e816115b5565b9050919050565b6000602082019050818103600083015261184e816115d8565b9050919050565b6000602082019050818103600083015261186e816115fb565b9050919050565b6000602082019050818103600083015261188e8161161e565b9050919050565b600060208201905081810360008301526118ae81611641565b9050919050565b600060208201905081810360008301526118ce81611664565b9050919050565b600060208201905081810360008301526118ee816116aa565b9050919050565b6000602082019050818103600083015261190e816116cd565b9050919050565b6000602082019050818103600083015261192e81611713565b9050919050565b6000602082019050818103600083015261194e81611736565b9050919050565b6000602082019050818103600083015261196e81611759565b9050919050565b6000602082019050818103600083015261198e8161177c565b9050919050565b60006020820190506119aa600083018461179f565b92915050565b60006040820190506119c5600083018461179f565b81810360208301526119d681611687565b905092915050565b60006040820190506119f3600083018461179f565b8181036020830152611a04816116f0565b905092915050565b6000602082019050611a2160008301846117ae565b92915050565b600081519050919050565b600082825260208201905092915050565b6000611a4e82611b0b565b9150611a5983611b0b565b9250827fffffffffffffffffffffffffffffffffffffffffffffffffffffffffffffffff03821115611a8e57611a8d611b87565b5b828201905092915050565b6000611aa482611b0b565b9150611aaf83611b0b565b925082821015611ac257611ac1611b87565b5b828203905092915050565b6000611ad882611aeb565b9050919050565b60008115159050919050565b600073ffffffffffffffffffffffffffffffffffffffff82169050919050565b6000819050919050565b600060ff82169050919050565b60005b83811015611b40578082015181840152602081019050611b25565b83811115611b4f576000848401525b50505050565b60006002820490506001821680611b6d57607f821691505b60208210811415611b8157611b80611bb6565b5b50919050565b7f4e487b7100000000000000000000000000000000000000000000000000000000600052601160045260246000fd5b7f4e487b7100000000000000000000000000000000000000000000000000000000600052602260045260246000fd5b6000601f19601f8301169050919050565b7f45524332303a207472616e7366657220746f20746865207a65726f206164647260008201527f6573730000000000000000000000000000000000000000000000000000000000602082015250565b7f45524332303a206275726e20616d6f756e7420657863656564732062616c616e60008201527f6365000000000000000000000000000000000000000000000000000000000000602082015250565b7f4f776e61626c653a206e6577206f776e657220697320746865207a65726f206160008201527f6464726573730000000000000000000000000000000000000000000000000000602082015250565b7f45524332303a20617070726f766520746f20746865207a65726f20616464726560008201527f7373000000000000000000000000000000000000000000000000000000000000602082015250565b7f45524332303a20696e73756666696369656e7420616c6c6f77616e6365000000600082015250565b7f45524332303a207472616e7366657220616d6f756e742065786365656473206260008201527f616c616e63650000000000000000000000000000000000000000000000000000602082015250565b7f546f6b656e73206275726e65642e000000000000000000000000000000000000600082015250565b7f4f776e61626c653a2063616c6c6572206973206e6f7420746865206f776e6572600082015250565b7f45524332303a206275726e2066726f6d20746865207a65726f2061646472657360008201527f7300000000000000000000000000000000000000000000000000000000000000602082015250565b7f4164646974696f6e616c20746f6b656e73206d696e7465642e00000000000000600082015250565b7f45524332303a207472616e736665722066726f6d20746865207a65726f20616460008201527f6472657373000000000000000000000000000000000000000000000000000000602082015250565b7f45524332303a20617070726f76652066726f6d20746865207a65726f2061646460008201527f7265737300000000000000000000000000000000000000000000000000000000602082015250565b7f45524332303a2064656372656173656420616c6c6f77616e63652062656c6f7760008201527f207a65726f000000000000000000000000000000000000000000000000000000602082015250565b7f45524332303a206d696e7420746f20746865207a65726f206164647265737300600082015250565b611f9381611acd565b8114611f9e57600080fd5b50565b611faa81611b0b565b8114611fb557600080fd5b5056fea2646970667358221220f97c8a0df9ecf5a2857ec8dc7e499bb8299e4b8bb13c16420b3a1dab7b2da32c64736f6c63430008040033",
    "linkReferences": {},
    "deployedLinkReferences": {}
}